{
  "contractName": "Migrations",
  "abi": [
    {
      "inputs": [],
      "stateMutability": "nonpayable",
      "type": "constructor"
    },
    {
      "inputs": [],
      "name": "owner",
      "outputs": [
        {
          "internalType": "address",
          "name": "",
          "type": "address"
        }
      ],
      "stateMutability": "view",
      "type": "function",
      "constant": true
    },
    {
      "inputs": [
        {
          "internalType": "uint256",
          "name": "completed",
          "type": "uint256"
        }
      ],
      "name": "setCompleted",
      "outputs": [],
      "stateMutability": "nonpayable",
      "type": "function"
    },
    {
      "inputs": [
        {
          "internalType": "address",
          "name": "newAddress",
          "type": "address"
        }
      ],
      "name": "upgrade",
      "outputs": [],
      "stateMutability": "nonpayable",
      "type": "function"
    }
  ],
  "bytecode": "0x608060405234801561001057600080fd5b50336000806101000a81548173ffffffffffffffffffffffffffffffffffffffff021916908373ffffffffffffffffffffffffffffffffffffffff160217905550610365806100606000396000f3fe608060405234801561001057600080fd5b50600436106100415760003560e01c80630900f010146100465780638da5cb5b14610062578063fdacd57614610080575b600080fd5b610060600480360381019061005b919061024b565b61009c565b005b61006a610166565b6040516100779190610287565b60405180910390f35b61009a600480360381019061009591906102d8565b61018a565b005b60008054906101000a900473ffffffffffffffffffffffffffffffffffffffff1673ffffffffffffffffffffffffffffffffffffffff163373ffffffffffffffffffffffffffffffffffffffff16036101635760008190508073ffffffffffffffffffffffffffffffffffffffff1663fdacd5766001546040518263ffffffff1660e01b815260040161012f9190610314565b600060405180830381600087803b15801561014957600080fd5b505af115801561015d573d6000803e3d6000fd5b50505050505b50565b60008054906101000a900473ffffffffffffffffffffffffffffffffffffffff1681565b60008054906101000a900473ffffffffffffffffffffffffffffffffffffffff1673ffffffffffffffffffffffffffffffffffffffff163373ffffffffffffffffffffffffffffffffffffffff16036101e557806001819055505b50565b600080fd5b600073ffffffffffffffffffffffffffffffffffffffff82169050919050565b6000610218826101ed565b9050919050565b6102288161020d565b811461023357600080fd5b50565b6000813590506102458161021f565b92915050565b600060208284031215610261576102606101e8565b5b600061026f84828501610236565b91505092915050565b6102818161020d565b82525050565b600060208201905061029c6000830184610278565b92915050565b6000819050919050565b6102b5816102a2565b81146102c057600080fd5b50565b6000813590506102d2816102ac565b92915050565b6000602082840312156102ee576102ed6101e8565b5b60006102fc848285016102c3565b91505092915050565b61030e816102a2565b82525050565b60006020820190506103296000830184610305565b9291505056fea2646970667358221220688637b16f854cc9a955bf9dc1e59c08d30e76902eb5612b50c1873ada3811c264736f6c634300080d0033",
  "immutableReferences": {},
  "source": "pragma solidity ^0.8.0;\n\ncontract Migrations {\n    address public owner;\n    uint last_completed_migration;\n\n    constructor() public {\n        owner = msg.sender;\n    }\n\n    modifier restricted() {\n        if(msg.sender == owner){\n            _;\n        }\n    }\n\n    function setCompleted(uint completed) public restricted{\n        last_completed_migration = completed;\n    }\n\n    function upgrade(address newAddress) public restricted{\n        Migrations upgraded = Migrations(newAddress);\n        upgraded.setCompleted(last_completed_migration);\n    }\n}",
  "sourcePath": "/Users/phavour/Documents/vcs/defi-staking-app-starter/defi-staking-app-starter/src/contracts/Migrations.sol",
  "compiler": {
    "name": "solc",
    "version": "0.8.13+commit.abaa5c0e.Emscripten.clang"
  },
  "schemaVersion": "3.4.6",
  "updatedAt": "2022-03-31T12:52:08.063Z",
  "networkType": "ethereum",
  "devdoc": {
    "kind": "dev",
    "methods": {},
    "version": 1
  },
  "userdoc": {
    "kind": "user",
    "methods": {},
    "version": 1
  }
}